S0160000466C6173685265616457726974652E7372656399
S2140000000C94DE070C94FF070C94FF070C94FF0774
S2140000100C94FF070C94FF070C94FF070C94FF0743
S2140000200C94FF070C94FF070C94D83E0C94653E86
S2140000300C94FF070C94FF070C94FF070C94FF0723
S2140000400C94FF070C94FF070C94FF070C94FF0713
S2140000500C94FF070C94FF070C94FF070C94FF0703
S2140000600C94FF070C94B1180C9403190C94DA182E
S2140000700C942C190C947E190C9455190C94FF07AB
S2140000800C94FF070C94FF070C94FF070C94FF07D3
S2140000900C94FF070C94FF070C94FF070C94FF07C3
S2140000A00C94FF070C94FF070C94FF070C94FF07B3
S2140000B00C94FF070C94FF070C940A0E0C94300C5B
S2140000C00C94FF070C94480B0C94860B0C94FF07BB
S2140000D00C94FF070C94FF070C94FF070C94FF0783
S2140000E00C94FF070C94FF070C94221A0C94741AB5
S2140000F00C944B1A0C949D1A0C94EF1A0C94C61A76
S2140001000C94FF070C94FF070C94FF070C94FF0752
S2140001100C94FF070C94FF070C9462250C94FF07C1
S2140001200C94FF070C94FF070C94FF070C94FF0732
S2140001300C94FF070C94FF070C94FF070C94FF0722
S2140001400C94FF070C94FF070C94FF070C94FF0712
S2140001500C94FF070C94FF070C94FF070C94FF0702
S2140001600C94A7190C94F9190C94D0190C94B42477
S2140001700C94FF070C94FF070C94FF070C94FF07E2
S2140001800C94FF070C94FF070C94FF070C94FF07D2
S2140001900C94FF070C94FF070C94FF070C94FF07C2
S2140001A00C94FF070C94FF070C94FF070C94FF07B2
S2140001B00C94FF070C94FF070C94FF070C94FF07A2
S2140001C00C94FF070C94FF070C94FF070C94FF0792
S2140001D00C94FF070C94FF070C94FF070C94181B55
S2140001E00C946A1B0C94411B0C94FF070C94FF079D
S2140001F00C94FF070C94FF070C94FF0787139413C7
S214000200A213AF13BD13F813051430146615731537
S21400021080158D159A15B515C215CF15084AD73B0A
S2140002203BCE016E84BCBFFDC12F3D6C74319ABDC0
S21400023056833DDA3D00C77F11BED9E4BB4C3E91E4
S2140002406BAAAABE000000803F05A84CCDB2D44ED3
S214000250B93836A9020C50B9918688083CA6AAAAD5
S2140002602ABE000000803F07634236B79BD8A71A15
S21400027039685618AEBAAB558C1D3CB7CC5763BD23
S2140002806DEDFD753EF6177231BF000000803F0829
S214000290000000BE922449123EABAAAA2ABECDCCCC
S2140002A0CC4C3E00000080BEABAAAAAA3E000000CE
S2140002B000BF000000803F0000000000084178D327
S2140002C0BB4387D1133D190E3CC3BD4282AD2B3EC6
S2140002D068EC8276BED98FE1A93E4C80EFFFBE0166
S2140002E0C4FF7F3F0000000000000C94AF130C9486
S2140002F0E3230C9487130C9430140C9480150C9400
S21400030073150C948D150C94320E0C94360B0C94BD
S214000310A2130C9485340C94BD2C0C949A150C9452
S2140003205C200C94BD130C94833F0C94B10A0C947F
S214000330371F0C9405140C9448250C94CF150C9478
S214000340C2150C946F1F0C94441C0C94F8130C9458
S21400035066150C948C0E0C9494130C94B51545529B
S214000360524F523A204D657373616765206C656E17
S214000370677468203020666F72206D73675F6E6FDB
S21400038064652E0D0A004572726F723A204D6573D1
S2140003907361676573206F766572666C6F772E2063
S2140003A0546F6F206D616E79206D6573736167653C
S2140003B0732072656365697665642E2054727920B1
S2140003C07370656564696E6720757020796F7572E5
S2140003D0206C6F6F7020696620796F752073656575
S2140003E020746869732061206C6F742E0D0A0045B6
S2140003F072726F722120576520676F74206168657E
S2140004006164206F6620746865207461736B206C6D
S21400041069737420616E64206E6F77206E6F7468E7
S214000420696E672077696C6C20657865637574659E
S2140004302E0D0A0009545749207761736E277420E1
S21400044072656164792E0D0A000D0A4368616E6E4E
S214000450656C73206172652070726F6261626C7980
S21400046020626C6F636B656420627920796F7572A9
S2140004702070726576696F7573206D65737361673A
S214000480652E0D0A0041626F7274696E67204952CC
S2140004902073656E64207768696C6520747279696C
S2140004A06E673A0D0A09004552524F523A204D6582
S2140004B07373616765206578636565647320495268
S2140004C05F4255464645525F53495A452E0D0A002F
S2140004D04552524F523A204D657373616765206CE2
S2140004E0656E677468203020696E20706572666F6E
S2140004F0726D5F69725F75706B6565702E0D0A00B0
S21400050009446F6E652077616974696E6720666F4F
S21400051072205457492E20495220706F77657273A7
S21400052020736574207375636365737366756C6C8E
S214000530792E0D0A00095457492074696D656F7548
S21400054074207768656E2073657474696E672049D9
S2140005505220506F7765727320000957616974697D
S2140005606E6720666F72205457492E2E2E0D0A0095
S214000570092569092568750D0A00446973742028E1
S2140005806D6D2920706572206B696C6F7374657071
S2140005900D0A00096469723A20256409004D6F74DB
S2140005A06F722056616C7565730D0A00496E206F78
S2140005B07264657220746F20676F20696E206469AC
S2140005C072656374696F6E2025687520666F722089
S2140005D02575206D6D2C2074616B696E67202575FE
S2140005E02073746570732E0D0A004552524F523AAE
S2140005F02063757272656E745F6F66667365743AB3
S2140006002025687520616E6420746F74616C5F7459
S214000610696D653A20256875206E6F742065717562
S214000620616C210D0A000D0A4552524F523A205372
S214000630657269616C20696E707574206275666695
S2140006406572206361706163697479206F66202526
S2140006507520636861726163746572732065786380
S21400066065656465642E0D0A004552524F523A2065
S214000670556E657870656374656420706F77657213
S2140006803A20256868750D0A0021212109476F74F4
S21400069020313520636F6E736563757469766520E7
S2140006A06E6F7468696E67732066726F6D2073650F
S2140006B06E736F72202568752E092121210D0A00A0
S2140006C04552524F523A20506F73742D72657475AE
S2140006D0726E2C207461736B2073746F7261676521
S2140006E020636F6E73697374656E637920636865E3
S2140006F0636B206661696C7572652E0D0A00506F1B
S21400070073742D63616C6C2C207461736B20255898
S21400071020686173206E6578745F70747220706FE5
S214000720696E74696E67206F757473696465206F8F
S214000730662061727261792E0D0A004552524F5240
S2140007403A205072652D63616C6C2C207461736B5B
S2140007502073746F7261676520636F6E736973745C
S214000760656E637920636865636B206661696C7586
S21400077072652E0D0A005072652D63616C6C2C201C
S2140007807461736B20686173206E6578745F707433
S2140007907220706F696E74696E67206F7574736906
S2140007A06465206F662061727261792E0D0A0009F9
S2140007B05461736B20257020282570292073636888
S2140007C06564756C656420617420256C7520776996
S2140007D0746820706572696F6420256C752C2025FE
S2140007E06C752063757272656E740D0A00546173C1
S2140007F06B205175657565202825686875207461BD
S214000800736B732C2025686875206578656375742E
S214000810696E67293A0D0A004E6577205461736B3E
S2140008202025702028257029207363686564756C00
S214000830656420617420256C752077697468207063
S2140008406572696F6420256C752C20256C75206395
S214000850757272656E740D0A004552524F52212011
S2140008605461736B206C69737420686173207365C0
S2140008706C662D7265666572656E63652E0D0A0080
S2140008804552524F523A207363686564756C6572C0
S2140008905F6D616C6C6F632072657475726E6564F3
S2140008A02061206E65775F7461736B20706F696E70
S2140008B0746572206F757473696465206F66207442
S2140008C06865207461736B2073746F72616765204E
S2140008D061727261792E0D0A004552524F523A20CB
S2140008E04E6F20656D7074792073706F7420666F1C
S2140008F0756E6420696E207363686564756C6572D6
S2140009005F6D616C6C6F632C20627574206E756D04
S2140009105F7461736B73207761736E2774206772E0
S2140009206561746572207468616E206F72206571EF
S21400093075616C206D61785F7461736B732E0D0A40
S2140009400009417474656D7074696E6720746F2059
S214000950726573746F7265207461736B5F6C697314
S21400096074202862792064726F7070696E672061E7
S2140009706C6C206E6F6E2D706572696F6469632093
S2140009807461736B732E0D0A09496620796F7520A2
S2140009906F6E6C79207365652074686973206D6569
S2140009A0737361676520726172656C792C20646F61
S2140009B06E277420776F72727920746F6F206D7552
S2140009C063682E0D0A004552524F523A20496E2057
S2140009D07363686564756C65725F667265652C2006
S2140009E0746774202825582920776173206F7574E2
S2140009F0736964652076616C6964205461736B2A40
S214000A002072616E67652E0D0A004D65737361670F
S214000A1065206C656E677468207761732025642096
S214000A2063686172732C20776869636820657863F1
S214000A306565647320746865206D6178696D756D91
S214000A40206F6620256400636F6D6D616E64207391
S214000A507472696E673A2025732C206C656E677415
S214000A60683A2025640D0A0042726F616463617300
S214000A7074696E6720636F6D6D616E643A2022251F
S214000A8073222C206F66206C656E6774682025695B
S214000A902E0D0A004D792049442069733A202530EE
S214000AA034580D0A000920227365745F6C65642053
S214000AB062677220352033302030222067697665E1
S214000AC073206120626C7569736820677265656E55
S214000AD02E0D0A0009206F726465722C20696E6400
S214000AE069636174696E67207468652062726967FD
S214000AF068746E657373206F662074686520617312
S214000B00736F636961746564204C4544732E204599
S214000B1078616D706C653A200D0A0009204C65748A
S214000B207465727320722C672C622C20696E2061AB
S214000B306E79206F726465722C20666F6C6C6F77AE
S214000B4065642062792076616C75657320302D327D
S214000B5035352C20696E2073616D65200D0A0009FD
S214000B60476F7420636F6D6D616E64207365745F8C
S214000B706C65642C2062757420617267756D656E95
S214000B8074732028257329207765726520696E7630
S214000B90616C69642E20466F726D61742073686F95
S214000BA0756C642062653A0D0A00476F74206164B4
S214000BB06A7573745F6D6F746F727320636F6D6D9B
S214000BC0616E642E20646972656374696F6E3A2084
S214000BD0256868752C204E65772053657474696E99
S214000BE067733A202825642C2025642C2025642948
S214000BF00D0A00737472746F6B2072657475726E72
S214000C006564204E554C4C206F6E20746869726483
S214000C102076616C2E0D0A00737472746F6B2072EE
S214000C20657475726E6564204E554C4C206F6E2050
S214000C307365636F6E642076616C2E0D0A007374A4
S214000C4072746F6B2072657475726E6564204E5593
S214000C504C4C206F6E2066697273742076616C2E21
S214000C600D0A0042616420646972656374696F6E80
S214000C702E20476F743A20256868752E0D0A00737B
S214000C807472746F6B2072657475726E6564204E34
S214000C90554C4C206F6E20646972656374696F6E84
S214000CA02E0D0A00476F74207365745F6D6F746F46
S214000CB0727320636F6D6D616E642E206469726559
S214000CC06374696F6E3A20256868752C2076616CAF
S214000CD0733A202825642C2025642C202564290DB1
S214000CE00A00737472746F6B2072657475726E6529
S214000CF064204E554C4C206F6E20746869726420D8
S214000D0076616C2E0D0A00737472746F6B207265B8
S214000D107475726E6564204E554C4C206F6E207351
S214000D2065636F6E642076616C2E0D0A00737472B4
S214000D30746F6B2072657475726E6564204E554CC8
S214000D404C206F6E2066697273742076616C2E0D6F
S214000D500A0042616420646972656374696F6E2E6E
S214000D6020476F743A20256868752E0D0A00737444
S214000D7072746F6B2072657475726E6564204E5562
S214000D804C4C206F6E20646972656374696F6E2EBA
S214000D900D0A00723A202568752C20673A202568CF
S214000DA0752C20623A202568750D0A0077616C6BF9
S214000DB020646972656374696F6E2025752C206ED9
S214000DC0756D5F73746570732025750D0A007072FB
S214000DD0696E745F6D6F746F725F73657474696E3D
S214000DE067730077726974655F6D6F746F725F7397
S214000DF0657474696E6773007265736574007461F8
S214000E00736B7300746774006D73675F747374003C
S214000E106D7367007467745F636D6400636D640070
S214000E2062726F6164636173745F6964006765749E
S214000E305F6964007365745F6C656400726E625F00
S214000E4062007365745F646973745F7065725F7364
S214000E507465700061646A5F6D6F746F727300739F
S214000E6065745F6D6F746F72730073746F705F7705
S214000E70616C6B00636F6C6C007365745F69720005
S214000E806765745F7267620077616C6B006D6F7682
S214000E90655F73746570730009436F6D6D616E6492
S214000EA020282025732029206E6F74207265636FBA
S214000EB0676E697A65642E0D0A006E616E00696E53
S214000EC0660000407A10F35A00A0724E180900100F
S214000ED0A5D4E80000E87648170000E40B540200AA
S214000EE000CA9A3B000000E1F505000080969800D5
S214000EF0000040420F000000A086010000001027FE
S214000F0000000000E803000000006400000000008D
S214000F100A00000000000100000000002C76D888BF
S214000F20DC674F0823DFC1DFAE59E1B1B796E5E3D2
S214000F30E453C63AE651997696E8E6C28426EB89EB
S214000F408C9B62ED407C6FFCEFBC9C9F40F2BAA588
S214000F506FA5F490055A2AF75C936B6CF9676DC120
S214000F601BFCE0E40D47FEF520E6B500D0ED902E24
S214000F700300943577050080841E080000204E0A82
S214000F80000000C80C333333330F986E12831141C0
S214000F90EF8D2114893BE65516CFFEE6DB18D1848B
S214000FA04B381BF77C1D901DA4BBE42420328472B2
S214000FB05E228100C9F124ECA1E53D2711241FBE65
S214000FC0CFEFCDBFDFE3DEBF00E00CBF13E2A0E053
S214000FD0B0E2EEE6FBEA00E00BBF02C007900D921F
S214000FE0AE3AB107D9F72DE2AEEAB3E201C01D92E0
S214000FF0AC32B207E1F70E94230A0C94B5550C9464
S21400100000000FB6F894609108047091090480916E
S2140010104824909149240FBE08953BB78BBFFB012F
S21400102086913BBF08953BB78BBFFB018791969196
S2140010303BBF089542E081C041E07FC08093C0017D
S21400104088278093C1018093C20147E066D0CB0118
S21400105008958093C40148E060C08091D00108954F
S2140010603BB748E10D9452003BB74AE10D9452005D
S2140010703BB740E20D9452003BB78BBFCB0142E238
S2140010800D9452003BB70B0143E20D9452003BB760
S2140010906BBFFA0119BEDC0140E04093CA0150E084
S2140010A0879197918D939D935A95D1F73BBF08955D
S2140010B03BB78BBFCB0144E20D9452003BB78BBFCE
S2140010C0CB0145E20D9452003BB746E20D94520028
S2140010D03BB78BBFCB014AE20D9452003BB78BBFA8
S2140010E0CB014CE20D9452003BB78BBFCB014DE2D7
S2140010F00D94520048E311C049E30FC028ED209339
S214001100340021E02093CC0108952091CF0127FDE3
S214001110FCCF22272093CA0108954093CA0128EDE8
S21400112031E0209334003093CB016091C40170917C
S214001130C5018091C60199270895FC014093CA0114
S21400114084910895CF92DF92EF92FF920F931F93B0
S214001150CF93DF93CDB7DEB7C054D109CDBFDEBF86
S214001160CE0148968B8B9C8B80914724882369F010
S21400117086E080931C261092472486E893E09F938F
S2140011808F930E94B1540F900F9080911C26882355
S21400119009F470C00F2EFDE3DF2EF02D0F2EFEE5B6
S2140011A0EF2EF3E0FF2EF02D00911C26CFB6F8941C
S2140011B0015010E0D09EF001D19EF00D1124EE55A6
S2140011C0FB4D83AD811106C0FF92EF920E94B15491
S2140011D00F900F90D09EB001D19E700D11248B0100
S2140011E00E551B4DF80143AD50E06C547B4D8B897A
S2140011F09C890E94F453F80180819181A281B38179
S21400120089839A83AB83BC8380899189898B9A8BE7
S21400121082AD8D8B83AD8E8B84819581A681B781BF
S2140012208D839E83AF83B88780859185A285B3859D
S21400123089879A87AB87BC8784859585A685B78579
S2140012408D879E87AF87B88B84AD8F8BCFBE83ADDF
S214001250EB89FC89E80FF11D108280911C268150D5
S21400126080931C26CE0101960E94764680911C260D
S21400127081119ACFC05CDF4FCDBFDEBFDF91CF912B
S2140012801F910F91FF90EF90DF90CF900895CF932E
S214001290DF93CDB7DEB7C054D109CDBFDEBF82E045
S2140012A08093CA0180E4E6E5F0E2DE011196019043
S2140012B00D928A95E1F79E012F5F3F4FBE016F5B4F
S2140012C07F4F40E050E0F90181919191A191B19159
S2140012D09F01ABBFFC01879196914827842F82958A
S2140012E08427082E869586958025082E8695802547
S2140012F08770042E452F869507948795502D48278E
S21400130006948795502548272617370709F0DBCF20
S2140013101092CA014093B0235093B123C05CDF4FB4
S214001320CDBFDEBFDF91CF910895E0EAF0E0828185
S21400133081608283828182608283828184608283EC
S2140013408281806882837894089540E060E084E635
S2140013500E94E03584E690E00E94ED3840E064E6C6
S21400136080E00E94E03584E690E00E94ED3844E696
S21400137060E080E00E94E03584E690E00E94ED3870
S2140013800E94D53540E060E084E60E94E03584E6C1
S21400139090E00E94ED3840E064E680E00E94E03590
S2140013A084E690E00E94ED3844E660E080E00E942B
S2140013B0E03584E690E00E94ED380E94D53540E0A6
S2140013C060E084E60E94E03584E690E00E94ED3816
S2140013D040E064E680E00E94E03584E690E00E940B
S2140013E0ED3844E660E080E00E94E03584E690E078
S2140013F00E94ED380E94D5350895F8940E94C638AC
S2140014000E9447090E9445390E94ED230E94B73585
S2140014100E94FF240E94020D0E9495090E94C82681
S2140014200E9439380E94931B0E94AE1D0E94C6225D
S2140014300E94542680E091E00E94441C0E94A50968
S2140014400E94C60F08950E94FD090E947246CFEEC4
S214001450D3E00E9475460E94A208809195288111CB
S2140014601DC00E940108E091D328F091D428008185
S214001470118122813381DC01CB01801B910BA20BF1
S214001480B30B893B9B40A105B10544F0DF93CF9396
S2140014900E94B1540E942D3B0F900F9081E090E087
S2140014A00E94ED38D6CF88ED84BF81E08093790026
S2140014B00895E0ECF1E087858823ECF308950E9418
S2140014C0590A8091CF0181FF0BC086E38093CA0141
S2140014D0EBECF1E021E030E088ED90E084BF208383
S2140014E00895CF93DF93D82FC92F0E94590AA0ECF6
S2140014F0B1E0DC93CF711196CC93119712961C92A3
S214001500129786E01A968C931A97EBECF1E021E09E
S21400151030E088ED90E084BF208314968C91DF91B4
S214001520CF9108951F93CF93DF93182FC92FD62FEF
S2140015300E945F0AE0ECF1E083E382871083CF71BC
S214001540C1831282D48385E38287EBECF1E021E04D
S21400155030E088ED90E084BF2083DF91CF911F912B
S2140015600895BF92CF92DF92EF92FF920F931F9350
S214001570CF93DF93E0912826F0912926C281D3816C
S214001580EC17FD0769F1C12CD12C76018881998171
S214001590BC0180E090E00E941F48A70196010E94CF
S2140015A0774620E030E040E752E40E9477479B0110
S2140015B0AC01C701B6010E9478466B017C010A8126
S2140015C01B81BFB6F894CE010E941151BFBEE80140
S2140015D0809128269091292680179107B9F604C095
S2140015E08E01C12CD12C7601F8010283138304836B
S2140015F01583E0E0FAE0C0A1D1A182A593A5C817A3
S214001600D907A8F400912A0A10912B0AC701B6013F
S2140016100E94F0476C0F7D1F0617170740F4409195
S21400162010266091CE2880911D260E94E035C701C5
S214001630B6010E94F047C60FD71FC134FDE9DF0789
S21400164038F080E49DE98093200A9093210A04C034
S214001650C093200AD093210ADF91CF911F910F915A
S214001660FF90EF90DF90CF90BF9008959C0140E4EC
S21400167060E070E08FE30E94591120E030E041EB1B
S2140016805AE068EC70E080E090E00E94E43B089549
S2140016901F920F920FB60F9211240BB60F922F9334
S2140016A03F934F935F936F937F938F939F93AF93E5
S2140016B0BF93EF93FF93E0E4FAE082AD93AD80939F
S2140016C01D2680AD91AD8093CE28809178099091AB
S2140016D079098093102640914424609123268091B6
S2140016E019260E94E035FF91EF91BF91AF919F912F
S2140016F08F917F916F915F914F913F912F910F90B6
S2140017000BBE0F900FBE0F901F9018951F920F9252
S2140017100FB60F9211240BB60F922F933F934F9351
S2140017205F936F937F938F939F93AF93BF93EF9344
S214001730FF93409110266091CE2880911D260E942E
S214001740E035FF91EF91BF91AF919F918F917F917F
S2140017506F915F914F913F912F910F900BBE0F901D
S2140017600FBE0F901F9018958F929F92AF92BF92C8
S214001770CF92DF92EF92FF920F931F93CF93CFB744
S214001780F8940E9401086B017C0121E234E140E0FC
S21400179050E00E94345061312AE07207BCF021E22A
S2140017A034E1261B370B80910A0490910B04821BB0
S2140017B0930B8C159D05D0F4809148249091492474
S2140017C00196809348249093492410C022273327FB
S2140017D0261B370BC616D70648F4809148249091EE
S2140017E0492401978093482490934924E0E0F4E04C
S2140017F0818180FDFDCFA901C20ED31EE0E0F4E09A
S214001800C086D18684859585820F931F84879587A9
S214001810CFBFC901332324F488279927821B930B53
S2140018208139910588F41216130634F4E0E5F0E0E9
S21400183084818F5F848308C0433E5F4F28F4E0E5D1
S214001840F0E0848181508483CF911F910F91FF90A7
S214001850EF90DF90CF90BF90AF909F908F900895BD
S2140018601F920F920FB60F9211240BB60F92CF92C3
S214001870DF92EF92FF922F933F934F935F936F9376
S2140018807F938F939F93AF93BF93EF93FF930E94A3
S21400189001086B017C010E94B926AC019C01ADECED
S2140018A0BCEC0E946650880F892F881F990B919573
S2140018B060EA689F9001699F300D1124CA01821B5F
S2140018C0930BBC0180E090E0960146E35BE00E944B
S2140018D0E43B0E94B40BFF91EF91BF91AF919F91B3
S2140018E08F917F916F915F914F913F912F91FF90D4
S2140018F0EF90DF90CF900F900BBE0F900FBE0F9023
S2140019001F901895AF92BF92CF92DF92EF92FF9200
S2140019100F931F93CF93DF93CBEDD8E22BED3AE2F4
S214001920FE018E2F8C1B8193E217F307D1F78BED08
S21400193098E20F943F001092CA0180E10F940E00C7
S21400194060E18BED9AE20F9433000BED1AE20F2E56
S214001950FBEDCF2EFCE2DF2EF02D0F2EF6E9EF2E5C
S214001960F0E2FF2EF02D5801F80181918F011F92B1
S2140019708F93FF92EF920E949D5489910F900F9043
S2140019800F900F90F5019081981306C00C151D0559
S21400199051F781E090E002C080E090E09F938F9343
S2140019A087EA90E29F938F930E949D540F900F902A
S2140019B00F900F90DF91CF911F910F91FF90EF90B6
S2140019C0DF90CF90BF90AF900895E091D728F09128
S2140019D0D82880839183E091D728F091D828019069
S2140019E0F081E02D68636183E091D728F091D828D4
S2140019F0A081B18115964C930190F081E02D81E095
S214001A0084830895E0E2F6E080E28283858B83E0BB
S214001A10809381068AE296E28093D7289093D8280E
S214001A204BE960E880EA94E00E94E50C0895CF93C5
S214001A30DF93493008F041C0293008F040C0E091FB
S214001A40D728F091D828978991112DC091E0978BCF
S214001A50108E880F8283442361F0A62FB72F80E074
S214001A6090E03D91EF01C80FD91F3B830196841784
S214001A70C0F3438B248B158A168A8389882341F00A
S214001A8082818E7F0190F081E02D868381E01AC0EE
S214001A9084898823B1F0828181600190F081E02DF5
S214001AA0868381E00FC084E394E09F938F930E9427
S214001AB0B1540F900F9080E005C080E003C080E036
S214001AC001C081E0DF91CF91089520E00E94170DBC
S214001AD00895E091D728F091D828A081B181149676
S214001AE08C91149782FF03C094E0908F02C093E01D
S214001AF0908F886014968C93178A0895E091D72863
S214001B00F091D828808F178A0895CF93DF93E091BD
S214001B10D728F091D82893892489A081B18114967A
S214001B208C91149784FF07C083E013968C9385E00E
S214001B30808F178A1CC08589891758F48589EF011C
S214001B40C80FD11D8B8117968C9385898F5F858BE7
S214001B500EC08689821728F48281816016968C933F
S214001B6006C083E013968C9381E00E947E0DDF9181
S214001B70CF910895E091D728F091D82886898830AB
S214001B8070F4A081B18117968C919689DF01A90F18
S214001B90B11D1B968C9386898F5F868B08C001903B
S214001BA0F081E02D83E0838382E00E947E0DE09149
S214001BB0D728F091D82894898689891730F401901F
S214001BC0F081E02D82E0838308950190F081E02D7E
S214001BD087E0838381E00E947E0D0895E091D728F8
S214001BE0F091D8280190F081E02D8481982F9C7088
S214001BF019F00E94690D089586FF03C00E94850DA6
S214001C00089588231CF40E94BA0D089586E00E9469
S214001C107E0D08951F920F920FB60F9211240BB6E9
S214001C200F922F933F934F935F936F937F938F9370
S214001C309F93AF93BF93EF93FF930E94EE0DFF9198
S214001C40EF91BF91AF919F918F917F916F915F912F
S214001C504F913F912F910F900BBE0F900FBE0F909C
S214001C601F901895EF92FF920F931F93CF93DF93D9
S214001C70CDB7DEB7EDB6FEB68091DB2C9091DC2CAE
S214001C8001962DB73EB7281B390B2DBF3EBF0DB7AB
S214001C901EB70F5F1F4F4091DB2C5091DC2C4F5F1F
S214001CA05F4F6EED7CE2C8010E94F4536091DB2C1E
S214001CB07091DC2CC8010E9407458FB7F8941092EB
S214001CC0CB288FBFEDBEFEBEDF91CF911F910F9147
S214001CD0FF90EF900895282F30E099E3899FF00158
S214001CE01124E15CF84D1482158216821782108644
S214001CF01186128613861486158616AA17AA10AEA3
S214001D00F901EE0FFF1FEC5DFF4D0190F081E02D15
S214001D1084818061848308952F923F924F925F92D0
S214001D206F927F928F929F92AF92BF92CF92DF92E6
S214001D30EF92FF920F931F93CF93DF93CDB7DEB74B
S214001D402D97CDBFDEBFFE0131968CE0DF011D92E0
S214001D508A95E9F70F2EFDE4EF2EF7E2FF2EF02D21
S214001D604F0122242A94C12CD12C0F2EF9E36F2E7A
S214001D70F02D0F2EFDE37F2EF02D0F2EF0EDAF2E63
S214001D80F4E0BF2EF02D26016C9CF0016D9CF00D4A
S214001D901124E15CF84D80AD81FFC7C03C2C822D3C
S214001DA022200CF4D0C090E06C9CD0016D9CB00D4D
S214001DB01124AD5BB84D2D913C911197E82FEE0F95
S214001DC0FF0B41E050E04C0F5D1FE40FF51F408114
S214001DD051814217530709F491E0815062F7649CE1
S214001DE0F001659CF00D1124E15CF84D24813581ED
S214001DF0D4012D933C93992321F0832D0E946B0EE2
S214001E0094C080911C26863028F0B1E0B093472419
S214001E1010921C26EFB7ED87F894649CF001659C41
S214001E20F00D1124E15CF84D86A9811106C0BF9221
S214001E30AF920E94B1540F900F90649C8001659CF5
S214001E40100D1124015C184DD801D6964C91809146
S214001E501C26789EC001112450E0B7018C549B4D7F
S214001E600E94F453E0911C26D801D6968C91D69702
S214001E707E9EF0011124EE55FB4DE80FF11D128AEF
S214001E8020911C268D919D910D90BC91A02D729E47
S214001E90F0011124EE55FB4D80839183A283B3831A
S214001EA0E0911C267E9EF0011124EE55FB4D32AECD
S214001EB0E0911C26D80116968D919C9117977E9ED0
S214001EC0F0011124EE55FB4D808B918BE0911C2682
S214001ED0D6968C91D6977E9EF0011124EE55FB4D3A
S214001EE083AFE0911C26D8968C91829581707E9E59
S214001EF0F0011124EE55FB4D84AFE0911C267E9E2A
S214001F00F0011124EE55FB4D83AD893220F082ECB2
S214001F1090E20E94DF54BD85BFBF80911C268F5F74
S214001F2080931C26832D0E946B0EEFEFCE1ADE0ADE
S214001F30F9E3EF0EF11C42E0840E911C239455E069
S214001F40251221CF0DC06C9CF0016D9CF00D112464
S214001F50E15CF84D84819581D4018D939C9351CF9B
S214001F602D96CDBFDEBFDF91CF911F910F91FF90D1
S214001F70EF90DF90CF90BF90AF909F908F907F9024
S214001F806F905F904F903F902F900895CF9394E47A
S214001F909093420684E08093620690938206809334
S214001FA0A2068FB7F8949FEF9093CA288FBFE4E2FB
S214001FB0F0E220E330E268E253E040E792E0A081FE
S214001FC0B18113966C93A081B18115965C93A08124
S214001FD0B18116964C93A081B18117969C93A081EF
S214001FE0B18114968C911497806114968C93A1916C
S214001FF0B19114968C911497886014968C93E2177E
S214002000F307E9F61092D9281092DA28C0E08C2F50
S2140020100E946B0ECF5FC630D1F71092CF28109279
S214002020D0281092D1281092D22810921C261092F6
S21400203047241092CB281092D12620E030E04CE8BE
S2140020405EE06EE370E080E090E00E94953C8FB723
S214002050F8941092CA288FBFCF9108953F924F925E
S2140020605F926F927F928F929F92AF92BF92CF9223
S214002070DF92EF92FF920F931F93CF93DF93182F69
S2140020804B01542E422E88E2841740F487EA94E0EF
S2140020909F938F930E94B1540F900F90C091B023DE
S2140020A0D091B123E12EF12C10FD0DC081E090E01F
S2140020B0AC019701082E02C0359527950A94E2F7E1
S2140020C020FF40C002C040E050E089E3849FF0015A
S2140020D0859FF00D1124E15CF84D80AD807CC8270B
S2140020E08C2F82958C27082E869586958025082E1F
S2140020F08695802587700C2ECD2F8695079487951C
S214002100D02DC82706948795D025C8278085918529
S214002110C8278C2F82958C27082E86958695802535
S214002120082E8695802587700C2ECD2F86950794D1
S2140021308795D02DC82706948795D025C827511097
S21400214007C091C001968630910509F0B1CFF7CF50
S214002150F4012FEF250D30E02F5F3F4F280D391D7E
S2140021608191C8278C2F82958C27082E8695869578
S2140021708025082E8695802587700C2ECD2F869577
S21400218007948795D02DC82706948795D025C8270D
S214002190E217F30729F767C0C701002E02C095951E
S2140021A087950A94E2F780FF23C0309EF001319EA7
S2140021B0F00D1124E15CF84D80AD806280AF56AA28
S2140021C0C483D583128613868091B0239091B12361
S2140021D086839783A301B401C6010E94F453F501D8
S2140021E09181F801EA5FFF4D8081892BF50181839B
S2140021F00F5F1F4FF9E3CF0ED11C0630110561F6B5
S214002200E4E2F0E280E090E049E39701082E02C0A5
S214002210359527950A94E2F720FF1FC0489FD00106
S214002220499FB00D1124A15CB84D1D921D921D92C0
S2140022301C921397442049F0A081B18113962C91EB
S2140022401397236013962C9308C0A081B181139630
S2140022502C911397226013962C9301963296863013
S214002260910599F614C00F2EFDE4CF2EF7E2DF2E6F
S214002270F02D00E010E00F2EF9E33F2EF02D652C38
S214002280712C0F2EA12CFBE0BF2EF02D85CFDF91F9
S214002290CF911F910F91FF90EF90DF90CF90BF905E
S2140022A0AF909F908F907F906F905F904F903F90F1
S2140022B00895BF92CF92DF92EF92FF920F931F93F3
S2140022C0CF93DF93C82E7B01D42E89018091CA2834
S2140022D0811153C08FE3841710F480ECD80E0E944F
S2140022E08C0EBFB6F894C4E2D0E2E0E0F0E06C2DCD
S2140022F070E059E341E881E090E0DB010E2E02C079
S214002300B595A7950A94E2F7A0FF29C0A881B981E0
S21400231014962C9114972F7E14962C935E9FD001C2
S2140023205F9FB00D1124A15CB84DD8964C93D897FA
S214002330D8962C91D8972064D8962C93D897189630
S2140023400D931C931997A091CA289C010E2E02C0CB
S214002350220F331F0A94E2F72A2B2093CA283196BD
S2140023602296E630F10549F6BFBE21E04D2DB701B5
S2140023708C2D0E942E1081E001C080E0DF91CF916D
S2140023801F910F91FF90EF90DF90CF90BF90089530
S2140023900F931F93CF93DF93182F0FB7F894809166
S2140023A0CB28811135C089E3189FB0011124EB01B9
S2140023B0C15CD84D4EA950E0635B784D8EED9CE233
S2140023C00E94F453EEA9F0E0E252F34D10822EA9DB
S2140023D030E02093DB2C3093DC2C88819981AA8115
S2140023E0BB818093CF289093D028A093D128B09318
S2140023F0D2288E819F818093132690931426109363
S21400240051248FA980939A2481E08093CB2801C021
S21400241080E00FBF8823A1F020E030E042E35EE0DA
S21400242065E070E080E090E00E94E43BDFB7F8945F
S214002430C0E08C2F0E946B0ECF5FC630D1F7DFBF97
S214002440DF91CF911F910F910895EF92FF920F9316
S2140024501F93CF93DF932FB7F8949091D1269111C5
S2140024600CC0C091200AD091210A8F3F21F091E044
S2140024709093D12603C090E001C090E02FBF99232F
S21400248009F46DC08B01682F70E06E5F7F4F072EDA
S214002490000C880B990B0E94214820E030E04AEFA0
S2140024A050E40E94804A0E94F0476C177D0728F08F
S2140024B0CF5BD246C61BD70B02C0C61BD70BFFB6D8
S2140024C0F89486E090E00E947C50AC01FFBEE0915C
S2140024D02826F09129260480F581E02D80819181BF
S2140024E0C817D90740F40480F581E02D208131819A
S2140024F0C217D307C0F382819381DC0114964D93F3
S2140025005C93159782819381DA0112968D939C9342
S21400251013971496ED93FC93159742835383CD93AC
S214002520DC93EFB6F894C0E0D0E00F2EF9E3FF2E70
S214002530F02DFC9EF001FD9EF00D1124E15CF84D9F
S214002540868197818017910719F48C2F0E946B0E55
S2140025502196C630D10569F71092D126EFBEDF91DD
S214002560CF911F910F91FF90EF900895EF92FF92F9
S2140025700F931F93CF93DF93EB016FB7F89490916F
S214002580A92691112FC09091CA28911127C08F3F7C
S21400259039F1C093CC28D093CD28853018F494E137
S2140025A0981B892F90E00596092E000CAA0BBB0BF2
S2140025B079018A01E81AF90A0A0B1B0BE0922B270D
S2140025C0F0922C2700932D2710932E2781E08093DE
S2140025D0A9268FEF8093CA2881E005C080E003C05B
S2140025E080E001C080E06FBF882309F43EC0EFB6EC
S2140025F0F89400E010E00F2EF9E3FF2EF02DF09E89
S214002600F001F19EF00D1124E15CF84D8681978172
S2140026108C179D0719F4802F0E946B0E0F5F1F4FBB
S2140026200630110561F7EFBE80912B2790912C277D
S214002630A0912D27B0912E2780932B2790932C279F
S214002640A0932D27B0932E270E94F82B8FB7F894CF
S2140026501092CA288FBF20E030E045E854E36AE0D5
S21400266070E080E090E00E94E43BDF91CF911F9104
S2140026700F91FF90EF900895CF92DF92EF92FF9226
S2140026800F931F93CF93DF93182FC82FD0E0FE0130
S214002690EE0FFF1FEC5DFF4D0190F081E02D0081F5
S2140026A00E9401086B017C0189E38C9FF0018D9FDD
S2140026B0F00D1124E15CF84D80819181A281B381F7
S2140026C0A7019601281B390B4A0B5B0B25313105F8
S2140026D04105510518F0812F0E946B0E89E38C9FEF
S2140026E0F0018D9FF00D1124E15CF84DC082D1827F
S2140026F0E282F3820284F385E02DE830F10508F0EB
S214002700B9C08827E250FF4F8F4F0C945650802F49
S21400271090E029E32C9FF0012D9FF00D1124E15C41
S214002720F84D86839783D0C089E38C9FF0018D9FF8
S214002730F00D1124E15CF84D86819781902B8683FD
S2140027409783C2C0802F90E029E32C9FF0012D9F35
S214002750F00D1124E15CF84D84839583B5C089E3C0
S2140027608C9FF0018D9FF00D1124E15CF84D848163
S2140027709581902B84839583A7C089E38C9FF00175
S2140027808D9FF00D1124E15CF84D80AD902F907C6C
S214002790892B80AF20AD86819781207C8227282FC9
S2140027A022952827022E269526952025022E269548
S2140027B020252770082E892F269507942795902D7B
S2140027C082270694279590258227848795870F73FE
S2140027D006AB86A9893208F477C089E38C9FF0019E
S2140027E08D9FF00D1124E15CF84D81E086AB6CC046
S2140027F0802F90E029E32C9FF0012D9FF00D1124EF
S214002800E15CF84D808791875FC089E38C9FF0017B
S2140028108D9FF00D1124E15CF84D80859185902BFD
S2140028208087918720853185848595858227282F06
S21400283022952827022E269526952025022E2695B7
S21400284020252770082E892F269507942795902DEA
S214002850822706942795902582278487958734C0FB
S21400286089E38C9FF0018D9FF00D1124E15CF84DFB
S21400287007AB2AC089E38C9FF0018D9FF00D1124D1
S214002880E15CF84DA285B3851897AE0FBF1F1E9664
S2140028900C93848595858027082F02950827002E9F
S2140028A0069506950025002E069500250770082E2D
S2140028B0892F069507940795902D802706940795EF
S2140028C0902580278487958789E38C9FF0018D9FCC
S2140028D0F00D1124E15CF84D828593850196828780
S2140028E093878285938526A930E0285F3F4F82171D
S2140028F0930708F4C9C089E38C9FF0018D9FF00D03
S2140029001124E15CF84D4485558524813581A485E4
S214002910B585E680F7806091B0237091B12380ADD5
S21400292086FB882780F991E0892761F199E39C9FCF
S214002930F0019D9FF00D1124E15CF84D0084F185B7
S214002940E02DEF2B79F09C9FF0019D9FF00D112458
S214002950E15CF84D0084F185E02DE617F70721F4D9
S21400296000E003C000E001C001E099E39C9FF00195
S2140029709D9FF00D1124E15CF84D97A9987F983F34
S21400298021F401C000E090E001C091E04217530737
S21400299009F069C0AB2B09F466C0E616F70609F421
S2140029A062C0011160C091115EC0882309F45FC047
S2140029B089E38C9FF0018D9FF00D1124E15CF84DAA
S2140029C087A9877087AB80AD882394F5812F0E94F6
S2140029D0C8115AC089E38C9FF0018D9FF00D112419
S2140029E0E15CF84D86A9882319F0813079F04CC057
S2140029F089E38C9FF0018D9FF00D1124E15CF84D6A
S214002A006681778187A90E9425123EC089E38C9F44
S214002A10F0018D9FF00D1124E15CF84D208131818D
S214002A20428153816681778187A90E94B6122CC0A5
S214002A309FB7F89489E38C9FF0018D9FF00D1124C9
S214002A40E15CF84D80AD826080AF80AD816080AF84
S214002A50CC0FDD1FCC5DDF4DE881F98184818F7E50
S214002A6084839FBF11C0812F0E946B0E0DC089E327
S214002A708C9FF0018D9FF00D1124E15CF84D80AD28
S214002A8088230CF4A7CFD4CFDF91CF911F910F915D
S214002A90FF90EF90DF90CF9008951F93CF93DF9332
S214002AA0182FC82FD0E089E3189FF0011124E15CAD
S214002AB0F84D0284F385E02DE830F10508F097C064
S214002AC08827EA5FFE4F8F4F0C94565089E38C9F01
S214002AD0F0018D9FF00D1124E15CF84D8681978101
S214002AE08093DD2C94C089E38C9FF0018D9FF00DC0
S214002AF01124E15CF84D868197819093DD2C87C088
S214002B0089E38C9FF0018D9FF00D1124E15CF84D58
S214002B10848195818093DD2C7AC089E38C9FF001B7
S214002B208D9FF00D1124E15CF84D84819581909382
S214002B30DD2C6DC089E38C9FF0018D9FF00D112474
S214002B40E15CF84D86A98F738093DD2C80AD909163
S214002B50DD2C8078892B8093DD2C80AD9091DD2C48
S214002B608074892B8093DD2C52C089E38C9FF00102
S214002B708D9FF00D1124E15CF84D80859185809342
S214002B80DD2C45C089E38C9FF0018D9FF00D11244C
S214002B90E15CF84D808591859093DD2C38C089E303
S214002BA08C9FF0018D9FF00D1124E15CF84D80ADF7
S214002BB086FD05C0812F886F8093DD2C28C00E947B
S214002BC0010829E32C9FF0012D9FF00D1124E15CF4
S214002BD0F84D20853185621B730B6F3F710518F425
S214002BE06093DD2C14C08FEF8093DD2C10C089E33A
S214002BF08C9FF0018D9FF00D1124E15CF84D8285CD
S214002C0093850897E80FF91F86858093DD2CFE01D3
S214002C10EE0FFF1FEC5DFF4D0190F081E02D8091DF
S214002C20DD2C808389E38C9FF0018D9FF00D1124AD
S214002C30E15CF84D228533852F5F3F4F228733872F
S214002C408285938526A930E0285F3F4F8217930739
S214002C5060F0812F0E946B0ECC0FDD1FCC5DDF4D28
S214002C60E881F98183818C7F8383DF91CF911F91E7
S214002C7008955FB7F894E0E0FBE04181282F30E04C
S214002C80D901AA5FBF4D9C9190959423918399E3B7
S214002C90929FF001939FF00D1124E15CF84D10AE69
S214002CA016AA128613861086118616821782220F9F
S214002CB0331FF901EC5DFF4DA081B18111969C9107
S214002CC01197906411969C930190F081E02D948169
S214002CD0906194834091CA2821E030E0B90102C097
S214002CE0660F771F8A95E2F7CB0180958423809341
S214002CF0CA285FBF089520E030E090E069E3AC01A9
S214002D00022E02C0559547950A94E2F740FF0AC086
S214002D10629FF001639FF00D1124E15CF84D40AD19
S214002D2045FD07C02F5F3F4F2630310541F781E054
S214002D30089580E00895BF92CF92DF92EF92FF92BF
S214002D400F931F93CF93DF93C82E7B01D42E890158
S214002D508091CA28882331F08CED90E20E94DF54DF
S214002D60B12C6BC08C2D0E947B16B82E81112AC008
S214002D7085E894E09F938F930E94B1540F900F9034
S214002D80DD20B9F0E701DA948D2D90E00196E80E8B
S214002D90F91E08EF10E299911F929F931F930F93CD
S214002DA00E949D540F900F900F900F90CE15DF0548
S214002DB091F789E494E09F938F930E94B1540F900B
S214002DC00F903BC0C4E2D0E2E0E0F0E04C2D50E0D3
S214002DD079E361E09A010E2E02C0359527950A9494
S214002DE0E2F720FF1DC0A881B98114968C91149734
S214002DF08F7E14968C937E9FD0017F9FB00D1124FA
S214002E00A15CB84DD8966C93D897D8969C91D897D5
S214002E109068D8969C93D89718960D931C931997FC
S214002E2031962296E630F105A9F620E04D2DB70141
S214002E308C2D0E942E10BB24B3948B2DDF91CF9146
S214002E401F910F91FF90EF90DF90CF90BF90089565
S214002E50CF92DF92EF92FF920F931F93CF93DF9361
S214002E60C82F8B01F42E8091CA28882331F08CED70
S214002E7090E20E94DF54E12C64C08C2F0E947B16E7
S214002E80E82E81112CC085E894E09F938F930E94D2
S214002E90B1540F900F90FF20C9F0E801FA94CF2CA0
S214002EA0D12C8FEFC81AD80AC00ED11E08EF10E238
S214002EB099911F929F931F930F930E949D540F907A
S214002EC00F900F900F90CC15DD0591F789E494E0F4
S214002ED09F938F930E94B1540F900F9032C0A4E23C
S214002EE0B0E220E030E04C2F50E0D9E381E0BA01B8
S214002EF0022E02C0759567950A94E2F760FF13C02C
S214002F00ED91FC91119794819F7E9483D29FF0015E
S214002F10D39FF00D1124E15CF84D80AF90AD906822
S214002F2090AF108611862F5F3F4F129626303105E0
S214002F30F1F620E04F2DB8018C2F0E942E10EE24C3
S214002F40E3948E2DDF91CF911F910F91FF90EF901C
S214002F50DF90CF900895BF92CF92DF92EF92FF92CC
S214002F600F931F93CF93DF93C82E7B01D42E890136
S214002F708091CA28882331F08CED90E20E94DF54BD
S214002F80B12C5EC08C2D0E947B16B82E81112AC0F3
S214002F9085E894E09F938F930E94B1540F900F9012
S214002FA0DD20B9F0E701DA948D2D90E00196E80E69
S214002FB0F91E08EF10E299911F929F931F930F93AB
S214002FC00E949D540F900F900F900F90CE15DF0526
S214002FD091F789E494E09F938F930E94B1540F90E9
S214002FE00F902EC0A4E2B0E2E0E0F0E04C2D50E0FE
S214002FF069E381E09A010E2E02C0359527950A9462
S214003000E2F720FF10C0CD91DC9111979C819F7E46
S2140030109C836E9FE0016F9FD00D1124C15CD84D3C
S21400302088AF0887198731961296E630F10511F7B2
S21400303020E04D2DB7018C2D0E942E10BB24B3949A
S2140030408B2DDF91CF911F910F91FF90EF90DF9026
S214003050CF90BF900895CF92DF92EF92FF920F939A
S2140030601F93CF93DF93C82F8B01F42E8091CA282D
S214003070882331F08CED90E20E94DF54E12C67C08B
S2140030808C2F0E947B16E82E81112CC085E894E0D8
S2140030909F938F930E94B1540F900F90FF20C9F01A
S2140030A0E801FA94CF2CD12C8FEFC81AD80AC00E9C
S2140030B0D11E08EF10E299911F929F931F930F93D2
S2140030C00E949D540F900F900F900F90CC15DD0529
S2140030D091F789E494E09F938F930E94B1540F90E8
S2140030E00F9035C0E4E2F0E220E030E04C2F50E0F4
S2140030F0D9E381E0BA01022E02C0759567950A945D
S214003100E2F760FF16C0A081B18114969C911497D7
S2140031109F7E14969C93D29FD001D39FB00D11240E
S214003120A15CB84DD8968C93D89718961D921C9291
S21400313019972F5F3F4F329626303105D9F620E09B
S2140031404F2DB8018C2F0E942E10EE24E3948E2D66
S214003150DF91CF911F910F91FF90EF90DF90CF906E
S21400316008951F920F920FB60F9211240BB60F926E
S2140031702F933F934F935F936F937F938F939F937A
S214003180AF93BF93EF93FF9380E00E943C13FF91B1
S214003190EF91BF91AF919F918F917F916F915F91CA
S2140031A04F913F912F910F900BBE0F900FBE0F9037
S2140031B01F9018951F920F920FB60F9211240BB600
S2140031C00F922F933F934F935F936F937F938F93BB
S2140031D09F93AF93BF93EF93FF9380E00E943916BF
S2140031E0FF91EF91BF91AF919F918F917F916F91DA
S2140031F05F914F913F912F910F900BBE0F900FBE96
S2140032000F901F9018951F920F920FB60F921124D1
S2140032100BB60F922F933F934F935F936F937F93CB
S2140032208F939F93AF93BF93EF93FF9380E00E949B
S2140032304D15FF91EF91BF91AF919F918F917F9127
S2140032406F915F914F913F912F910F900BBE0F9012
S2140032500FBE0F901F9018951F920F920FB60F92E9
S21400326011240BB60F922F933F934F935F936F9358
S2140032707F938F939F93AF93BF93EF93FF9381E0DA
S2140032800E943C13FF91EF91BF91AF919F918F9158
S2140032907F916F915F914F913F912F910F900BBE51
S2140032A00F900FBE0F901F9018951F920F920FB69B
S2140032B00F9211240BB60F922F933F934F935F9369
S2140032C06F937F938F939F93AF93BF93EF93FF93E9
S2140032D081E00E943916FF91EF91BF91AF919F91C7
S2140032E08F917F916F915F914F913F912F910F90AA
S2140032F00BBE0F900FBE0F901F9018951F920F9247
S2140033000FB60F9211240BB60F922F933F934F9345
S2140033105F936F937F938F939F93AF93BF93EF9338
S214003320FF9381E00E944D15FF91EF91BF91AF9101
S2140033309F918F917F916F915F914F913F912F91C8
S2140033400F900BBE0F900FBE0F901F9018951F92F8
S2140033500F920FB60F9211240BB60F922F933F9336
S2140033604F935F936F937F938F939F93AF93BF9388
S214003370EF93FF9382E00E943C13FF91EF91BF9181
S214003380AF919F918F917F916F915F914F913F91F8
S2140033902F910F900BBE0F900FBE0F901F90189599
S2140033A01F920F920FB60F9211240BB60F922F9307
S2140033B03F934F935F936F937F938F939F93AF93B8
S2140033C0BF93EF93FF9382E00E943916FF91EF912F
S2140033D0BF91AF919F918F917F916F915F914F9128
S2140033E03F912F910F900BBE0F900FBE0F901F9026
S2140033F018951F920F920FB60F9211240BB60F92CC
S2140034002F933F934F935F936F937F938F939F93E7
S214003410AF93BF93EF93FF9382E00E944D15FF9109
S214003420EF91BF91AF919F918F917F916F915F9137
S2140034304F913F912F910F900BBE0F900FBE0F90A4
S2140034401F9018951F920F920FB60F9211240BB66D
S2140034500F922F933F934F935F936F937F938F9328
S2140034609F93AF93BF93EF93FF9383E00E943C1329
S214003470FF91EF91BF91AF919F918F917F916F9147
S2140034805F914F913F912F910F900BBE0F900FBE03
S2140034900F901F9018951F920F920FB60F9211243F
S2140034A00BB60F922F933F934F935F936F937F9339
S2140034B08F939F93AF93BF93EF93FF9383E00E9406
S2140034C03916FF91EF91BF91AF919F918F917F91A8
S2140034D06F915F914F913F912F910F900BBE0F9080
S2140034E00FBE0F901F9018951F920F920FB60F9257
S2140034F011240BB60F922F933F934F935F936F93C6
S2140035007F938F939F93AF93BF93EF93FF9383E045
S2140035100E944D15FF91EF91BF91AF919F918F91B2
S2140035207F916F915F914F913F912F910F900BBEBE
S2140035300F900FBE0F901F9018951F920F920FB608
S2140035400F9211240BB60F922F933F934F935F93D6
S2140035506F937F938F939F93AF93BF93EF93FF9356
S21400356084E00E943C13FF91EF91BF91AF919F9131
S2140035708F917F916F915F914F913F912F910F9017
S2140035800BBE0F900FBE0F901F9018951F920F92B4
S2140035900FB60F9211240BB60F922F933F934F93B3
S2140035A05F936F937F938F939F93AF93BF93EF93A6
S2140035B0FF9384E00E943916FF91EF91BF91AF917F
S2140035C09F918F917F916F915F914F913F912F9136
S2140035D00F900BBE0F900FBE0F901F9018951F9266
S2140035E00F920FB60F9211240BB60F922F933F93A4
S2140035F04F935F936F937F938F939F93AF93BF93F6
S214003600EF93FF9384E00E944D15FF91EF91BF91D9
S214003610AF919F918F917F916F915F914F913F9165
S2140036202F910F900BBE0F900FBE0F901F90189506
S2140036301F920F920FB60F9211240BB60F922F9374
S2140036403F934F935F936F937F938F939F93AF9325
S214003650BF93EF93FF9385E00E943C13FF91EF9199
S214003660BF91AF919F918F917F916F915F914F9195
S2140036703F912F910F900BBE0F900FBE0F901F9093
S21400368018951F920F920FB60F9211240BB60F9239
S2140036902F933F934F935F936F937F938F939F9355
S2140036A0AF93BF93EF93FF9385E00E943916FF9187
S2140036B0EF91BF91AF919F918F917F916F915F91A5
S2140036C04F913F912F910F900BBE0F900FBE0F9012
S2140036D01F9018951F920F920FB60F9211240BB6DB
S2140036E00F922F933F934F935F936F937F938F9396
S2140036F09F93AF93BF93EF93FF9385E00E944D1582
S214003700FF91EF91BF91AF919F918F917F916F91B4
S2140037105F914F913F912F910F900BBE0F900FBE70
S2140037200F901F901895CF93DF93A0EAB6E093EF23
S21400373011969C931197E0E0FBE082E08483808101
S2140037408360808383ED87A386A389E681A783A70A
S21400375085A787A780A782A79183C0E4D6E098E8CC
S214003760998320E636E088E0F901818340E856E058
S214003770FA01918311968C9311979E83F9018683A3
S214003780FA01968316968C93169780E48B8B8F8B14
S214003790F901838BFA01838B878B53968C93DF9189
S2140037A0CF910895CF93DF9390E0DC01AA0FBB1F63
S2140037B0AD014C5D5F4DEA01E881F9812481FC0191
S2140037C0EE54FC4D2083E0E0FBE03181EC01C25E6C
S2140037D0DF4D28812095232321832881E0EAF6E027
S2140037E0218334812881232B2483EA01E881F9810F
S2140037F01482A45FBF4DCD91DC911197FC01E85E69
S214003800FF4D808189830D90BC91A02D14969C91CC
S214003810149780818095892314968C93DF91CF919D
S214003820089590E09C01220F331FF901E45FFF4DDD
S2140038300190F081E02D5481DC01A85EBF4D4C91D3
S214003840452B4483F901EC5DFF4D0190F081E02D9E
S214003850DC01AE54BC4D2C912483A0EAB6E014964D
S2140038602C911497FC01E25EFF4D808180958223A7
S21400387014968C93A0E0BBE011969C9111978081E2
S214003880892B11968C9308958F929F92AF92BF9238
S214003890DF92EF92FF920F931F93CF93DF9300D0A8
S2140038A000D0CDB7DEB77C018130914008F047C12B
S2140038B08091D9289091DA288E159F0509F43FC18A
S2140038C0F982EA828F2D80618B83EC828F2D806651
S2140038D08D83EE820E9401084B015C01D12C0AE523
S2140038E015E034C00E940108DC01CB018819990953
S2140038F0AA09BB0985369105A105B10568F01F9395
S2140039000F930E94B1548AE090E00E94ED380F9029
S2140039100F90DD24D3941AC00E940108DC01CB016D
S21400392088199909AA09BB09893E9340A105B105E2
S21400393068F085E395E09F938F930E94B1548FEFD4
S21400394090E20E94DF540F900F90F9C0E091D728C4
S214003950F091D82887898111C5CF46E0BE016F5FF8
S2140039607F4F8CE20E94650D882309F446C048C04C
S2140039700E940108DC01CB0188199909AA09BB0934
S21400398085369105A105B10568F01F930F930E9437
S214003990B1548AE090E00E94ED380F900F90DD243D
S2140039A0D3941AC00E940108DC01CB01881999093A
S2140039B0AA09BB09893E9340A105B10568F085E3D5
S2140039C095E09F938F930E94B15484E091E20E9409
S2140039D0DF540F900F90B3C0E091D728F091D8280D
S2140039E087898111C5CF46E0BE016F5F7F4F8CE2AD
S2140039F00E94650D882381F303C00AE515E0ECCF2D
S214003A000AE515E034C00E940108DC01CB018819E4
S214003A109909AA09BB0985369105A105B10568F083
S214003A201F930F930E94B1548AE090E00E94ED38F5
S214003A300F900F90DD24D3941AC00E940108DC0179
S214003A40CB0188199909AA09BB09893E9340A105AB
S214003A50B10568F085E395E09F938F930E94B1547B
S214003A6089E091E20E94DF540F900F9068C0E091C9
S214003A70D728F091D82887898111C5CF46E0BE01A6
S214003A806F5F7F4F8EE20E94650D882309F446C063
S214003A9048C00E940108DC01CB0188199909AA09CF
S214003AA0BB0985369105A105B10568F01F930F93F4
S214003AB00E94B1548AE090E00E94ED380F900F907B
S214003AC0DD24D3941AC00E940108DC01CB018819BA
S214003AD09909AA09BB09893E9340A105B10568F07A
S214003AE085E395E09F938F930E94B1548EE091E218
S214003AF00E94DF540F900F9022C0E091D728F091DB
S214003B00D82887898111C5CF46E0BE016F5F7F4FF9
S214003B108EE20E94650D882381F303C00AE515E056
S214003B20ECCFDD2041F080E095E09F938F930E94DC
S214003B30B1540F900F90E092D928F092DA2826968A
S214003B40CDBFDEBFDF91CF911F910F91FF90EF9019
S214003B50DF90BF90AF909F908F900895E0E2F6E0E0
S214003B608CEF828387E0858B868B878B848B828B1A
S214003B70838BE0E4F2E090E2928390E19183848389
S214003B8083E180A384E081A384B5848785B5858797
S214003B9081E080838AE090E00E94ED38EEE1F7E273
S214003BA08FEF9FE7808391838283938384839583BB
S214003BB0868397838087918782879387E5E5F6E2F9
S214003BC01082118212821382148215821682178244
S214003BD0108611861286138620E030E047E35FE108
S214003BE068EE73E080E090E00E94E43B20E030E086
S214003BF04FE65FE163E174E380E090E00E94953C6D
S214003C000895EF92FF920F931F93CF93DF93EC01EB
S214003C10613019F48881998153C0623059F5288142
S214003C2039818A819B81820F931F99230CF4019618
S214003C309595879545C092E0E90EF11C8F5F861733
S214003C40F1F0982F8701E92FF0E0EE0FFF1FEC0F41
S214003C50FD1F40815181D7012D913C91421753079A
S214003C602CF4D8014D935C93208331839F5F961389
S214003C70EACFE1CF662329F07C0180E0DFCF60FD4C
S214003C8015C06695E62FF0E0E150F048EE0FFF1FF6
S214003C90EC0FFD1F2081318182819381820F931F5B
S214003CA099230CF40196959587950AC06695262F5C
S214003CB030E0220F331FFE01E20FF31F8081918157
S214003CC0DF91CF911F910F91FF90EF9008952F9263
S214003CD03F924F925F926F927F928F929F92AF9297
S214003CE0BF92CF92DF92EF92FF920F931F93CF93E4
S214003CF0DF931F92CDB7DEB78983692E762E4DB639
S214003D005EB6862F90E06C01CC0CDD1C8C0D9D1DE4
S214003D10880F991F880F991F2DB73EB7281B390BA0
S214003D202DBF3EBF0DB71EB70F5F1F4F180163E2D2
S214003D3071E2A8010F2EF9E2EF2EF1E2FF2EF02D30
S214003D40AA24AA94A70CB12CAA0CBB1CE0E4F2E0AF
S214003D5032E0A30EB11C8824839481A1877081A3CE
S214003D6081A1DB019D91BD01892B81A37720A9F05C
S214003D709501240F351FDA019FB6F89480A180685C
S214003D8080A383A18823E9F3808991898D939D93ED
S214003D9083A29FBEA217B30779F74C0D5D1D6E1563
S214003DA07F05D9F60C5F1F4F0F2EF5E58F2EF6E236
S214003DB09F2EF02DE980F62CA12CB12C0F2EFEEFB5
S214003DC06F2EF02D670CB2E0B71568F4662DC801AB
S214003DD00E94011EF40120813181821B930BD701C2
S214003DE08D939C931FC0B2E07B120EC061E0C801A9
S214003DF002970E94011EF40120813181821B930BE1
S214003E00D7018D939C930EC0CA9CF001CB9CF00DFD
S214003E10DA9CF00D1124E20DF31D80819181F701EB
S214003E2080839183FFEFAF1ABF0A0C0D1D1D22E0A1
S214003E30820E911C32E0E30EF11C86E0A816B10457
S214003E4011F64DBE5EBE0F90DF91CF911F910F9180
S214003E50FF90EF90DF90CF90BF90AF909F908F90A5
S214003E607F906F905F904F903F902F900895EF92C5
S214003E70FF920F931F93CF93DF936DE085E596E255
S214003E800E94671E83E191E29F938F930E949D5448
S214003E90C5E5D6E20F2EF1E6EF2EF6E2FF2EF02D68
S214003EA00F900F900EE111E28881998122969F93E0
S214003EB08F931F930F930E949D540F900F900F9017
S214003EC00F90CE15DF0581F785EA90E20E94DF5459
S214003ED0DF91CF911F910F91FF90EF900895CF92B1
S214003EE0DF92EF92FF920F931F93CF93DF93CDB79E
S214003EF0DEB72C97CDBFDEBF9FB7F8948091CA2857
S214003F00811112C08FEF8093CA289FBFCE01019601
S214003F107C0105E516E20F2EF1E6CF2EF6E2DF2E47
S214003F20F02DF801DC0102C09FBF28C0808191817E
S214003F308D939D9311921192EC15FD05B9F76DE0E6
S214003F4085E596E20E94671EF801D7012D913D9106
S214003F507D0180819181820F931F99230CF4019635
S214003F6095958795808391830E5F1F4F0C151D05D1
S214003F7059F78FB7F8941092CA288FBF2C96CDBFEA
S214003F80DEBFDF91CF911F910F91FF90EF90DF90F2
S214003F90CF900895AF92BF92CF92DF92EF92FF92AA
S214003FA00F931F93CF93DF93CDB7DEB76897CDBF40
S214003FB0DEBF81E0809377278093B0278093E92740
S214003FC08093222880935B2880939428E090D928B9
S214003FD0F090DA2880E091E00E94441C65E0CE0173
S214003FE001960E94671E10E0812F0E94D21B1F5F61
S214003FF01630D1F78FEC97E00197F1F7000000C07C
S21400400065E0CE010D960E94671E10E0812F0E948B
S214004010111C1F5F1630D1F7CE010D969E012F5F43
S2140040203F4F5901EEE1F7E240E050E010E061E07A
S21400403070E0DC012D913D91CD01D501CD90DD9054
S2140040405D012C193D09C080D1802C153D051CF45E
S214004050208331830DC02C193D092531310544F0EC
S2140040609B01042E02C0220F331F0A94E2F7122B84
S2140040704F5F5F4F329646305105D9F6C7010E9412
S214004080441C109277271092B0271092E9271092BE
S214004090222810925B2810929428812F6896CDBF14
S2140040A0DEBFDF91CF911F910F91FF90EF90DF90D1
S2140040B0CF90BF90AF90089583E0809301088093DF
S2140040C041088093010993E3909346068093660621
S2140040D01092A12480914524909146240E948A390A
S2140040E008958091A124882324F48091A1248770C8
S2140040F008958FEF08954F925F926F927F928F92FE
S2140041009F92AF92BF92CF92DF92EF92FF920F9361
S2140041101F93CF93DF93CDB7DEB72997CDBFDEBF12
S214004120182F7B010E94712088230CF025C1812F57
S214004130877080688093A124A0902426B0902526BE
S214004140AA0CBB1CAA0CBB1CAA0CBB1CAA0CBB1C36
S214004150AA0CBB1C8090AB269090AC26880C991CB1
S214004160880C991C880C991C880C991C880C991C26
S214004170812F90E0FC01EE0FFF1FE80FF91FEE0FF6
S214004180FF1FE956F74DCE0101966C019E01295F8F
S2140041903F4F290100E010E03F0160817181611509
S2140041A0710531F4DC011D921C92D9011C9219C0D4
S2140041B0AB01772324F444275527461B570B4A0D9B
S2140041C05B1DDC014D935C93D30111966C91660FD9
S2140041D0660B660F6F5FD9016C93080D191D040FEF
S2140041E0151F329602962F5F3F4F84159505A1F650
S2140041F040E059E0FA0106A317A3A0E4B8E09696BB
S2140042000D931C93979780E098E0FC0106A317A3F4
S21400421029813A8122A733A720A731A78B819C81C9
S2140042209A968D939C939B9798968D939C9399972B
S2140042308D819E81DA019A968D939C939B97989692
S2140042408D939C939997A090AB26B090AC26AA0C21
S214004250BB1CAA0CBB1CAA0CBB1CAA0CBB1CAA0C25
S214004260BB1C40E020E030E06894882486F899245F
S21400427093F8612C6894772473F80F2E412CF9E09C
S2140042805F2EF02DD601ED91FD916D01309769F10D
S214004290413081F018F04230C9F023C0C801821BBB
S2140042A0930BB8010E940C50D30190968D939C936B
S2140042B0919717C0C801821B930BB8010E940C503F
S2140042C0D40190968D939C9391970BC0C801821B46
S2140042D0930BB8010E940C50D20190968D939C933C
S2140042E091972A0D3B1D2E0F3F1F4F5F433051F60F
S2140042F02017310709F444C01F930F933F932F9361
S2140043008AEE95E09F938F930E94B1540F900F9082
S2140043100F900F900F900F9033C0E0E0F9E081818E
S2140043208061818307C018162CF4E0E0F9E08181F3
S214004330806281839801D7010E946650689414F8C1
S21400434096958795779567951694D1F720E030E097
S2140043504CE550E20E94E43B80934524909346242B
S214004360892B61F489E291E29F938F930E949D547A
S2140043700F900F9081E030C080E02EC081E02CC00E
S2140043808F81882334F4E0E0F8E0818180618183C6
S2140043901AC01816C4F4E0E0F8E0818180628183D8
S2140043A012C0E0E4F8E081818061818307C01816BE
S2140043B074F4E0E4F8E08181806281838985882353
S2140043C00CF0B1CFAACF888588238CF7EACF8985F1
S2140043D088230CF0A8CFA1CF2996CDBFDEBFDF91F2
S2140043E0CF911F910F91FF90EF90DF90CF90BF90ED
S2140043F0AF909F908F907F906F905F904F900895B2
S2140044008F929F92AF92BF92FF920F931F93CF937C
S214004410DF93F82EEB01E82FF0E0EE0FFF1FE15DD3
S214004420F84D0081118186EE93E0801B910B8F3C46
S214004430974060F483E591E20E94DF5485E08F1593
S21400444018F008E512E002C000ED17E0BE0180E0BB
S21400445090E00E941F484B015C01B80180E090E0AC
S2140044600E941F4820E030E04AE754E40E94774765
S2140044709B01AC01C501B4010E9477474B015C016A
S2140044808AE090E00E94ED38C501B4010E94F04732
S214004490062F172F7F936F93DF93CF931F92FF9272
S2140044A08CEA95E09F938F930E94B1548AE090E047
S2140044B00E94ED38602F712F8F2D0E947B208DB7C4
S2140044C09EB708968DBF9EBFDF91CF911F910F912B
S2140044D0FF90BF90AF909F908F900895E82FF0E0E8
S2140044E0EE0FFF1FE15DF84D6083718308959F9284
S2140044F0AF92BF92CF92DF92EF92FF920F931F93ED
S214004500CF93DF93C0E1D0E018C0CE010E94710ABD
S214004510982ECE0101960E94710AF92CE12C8E2964
S2140045209F29F601819391936F012296C017D107B8
S21400453061F7E8010034110541F0CE018957974D27
S2140045406C018E010A5F1F4FE0CFCFE2D7E2C801B1
S2140045500E94710AF82EC80101960E94710ABF2CAB
S214004560A12C8A299B29899399930E5F1F4F0035AA
S214004570110569F7DF91CF911F910F91FF90EF9092
S214004580DF90CF90BF90AF909F900895CF93DF932A
S214004590A0E4B6E083E311968C931197E0E6F6E08C
S2140045A083E08183C0E0D8E097E098838983C0E405
S2140045B0D8E098838983C0E0D9E09883898390E423
S2140045C054969C93549755969C935597908B918BA5
S2140045D090E316969C9386831092A12484E190E043
S2140045E0809324269093252688E290E08093AB263D
S2140045F09093AC260E947722DF91CF910895CF92B8
S214004600DF92EF92FF920F931F93CF93DF93C0E159
S214004610D0E018C0F601019111916F01612F70E092
S214004620CE010E94920AB8017727CE0101960E9419
S214004630920A2296CE15DF0569F7E701F0E4EF1639
S214004640F10449F0CE018957974D6C017E0196E042
S214004650E90EF11CDFCF0FE217E2F801C191D1910C
S2140046608F016D2F70E0C7010E94920ABE01772766
S214004670C70101960E94920AF2E0EF0EF11C80E557
S214004680E816F10451F7DF91CF911F910F91FF903B
S214004690EF90DF90CF9008958F929F92AF92BF9247
S2140046A0CF92DF92EF92FF921F93CF93DF938DE925
S2140046B095E09F938F930E94B1540F2EF7E9AF2E8B
S2140046C0F8E2BF2EF02D0F900F90C12CD12C0F2E9C
S2140046D0F3E98F2EF5E09F2EF02D0F2EFCE8EF2E3F
S2140046E0F1E2FF2EF02DDF92CF929F928F920E94E2
S2140046F0B1540F900F900F900F90E50110E0888155
S214004700998122969F938F93FF92EF920E949D54D9
S2140047101F5F0F900F900F900F90133081F785EA70
S21400472090E20E94DF548FEFC81AD80A86E0A80EDF
S214004730B11C88E0C816D104B1F685EA90E20E9462
S214004740DF54DF91CF911F91FF90EF90DF90CF90D5
S214004750BF90AF909F908F900895EF92FF920F9327
S2140047601F93CF93DF938AE795E09F938F930E94E2
S214004770B1540FE217E20F900F90C0E0D0E00F2E7A
S214004780F0E7EF2EF5E0FF2EF02DF8018081918105
S2140047900E5F1F4F9F938F93DF93CF93FF92EF92FF
S2140047A00E94B15421960F900F900F900F900F908B
S2140047B00F90C830D10549F7DF91CF911F910F9127
S2140047C0FF90EF900895E0EBF9E0918195FFFDCF23
S2140047D08093B00981E090E00895E0E6F6E080E896
S2140047E0818380E48283E0EBF9E083E0858387E1E0
S2140047F0868384EA87838481806184838481886059
S214004800848380E390E28093262D9093272D109248
S2140048109B2410929C2480E283838AE090E00E948E
S214004820D95408950F931F93CF9380919B24909112
S2140048309C24C82F9927FC01EE5AFB4D80818823C3
S21400484081F004E21DE2F8016281738190E00E942B
S2140048506554CF5FEC2FF0E0EE5AFB4D808181115E
S214004860F2CF8C2F90E080939B2490939C24CF9142
S2140048701F910F9108958091B009909196289130DC
S21400488039F4813411F40E94122410929628089567
S21400489090914A24992341F08B3519F481E0809356
S2140048A0962810924A2408958D3011F08A30A9F483
S2140048B085EA90E20E94DF5460919B2470919C24CC
S2140048C0FB01EE5AFB4D108282E594E20E940745FA
S2140048D010929B2410929C2408958830A1F4809115
S2140048E09B2490919C24009729F0019780939B2409
S2140048F090939C2480E991E29F938F930E949D540D
S2140049000F900F9008958B3121F481E080934A2414
S214004910089520919B2430919C242034310591F4F5
S2140049201F9280E48F9386E296E09F938F930E9477
S214004930B15410929B2410929C240F900F900F90CD
S2140049400F900895F901EE5AFB4D80832F5F3F4F7D
S21400495020939B2430939C246091262D7091272DC4
S21400496090E00E94655408951F920F920FB60F9222
S21400497011240BB60F922F933F934F935F936F9331
S2140049807F938F939F93AF93BF93EF93FF930E9472
S2140049903B24FF91EF91BF91AF919F918F917F91B3
S2140049A06F915F914F913F912F910F900BBE0F909B
S2140049B00FBE0F901F90189583E080932206E0E9C3
S2140049C0F3E081E08083818388E08283838380E1D3
S2140049D086830895E0E0F6E08FE1828387E0808BAF
S2140049E0818B828B838B848BE0E8F3E080E1868387
S2140049F0828381E1838389E08083818308950E9496
S214004A00DC240E94EA240895CF93DF931F92CDB74B
S214004A10DEB79FB7F894813019F0823041F00EC0AF
S214004A20E0E8F3E088E1828389E1838309C0E0E877
S214004A30F3E080E2828381E2838302C0882301F16F
S214004A40EFE1F3E03197F1F700C00000E0E8F3E0B3
S214004A508781898380E1828381E183839FBF898107
S214004A60807C803429F0803829F0811105C006C08A
S214004A7080E00AC08FEF08C08FE706C081E004C060
S214004A80809187038983EACF0F90DF91CF910895B5
S214004A9080E00E940425811114C081E00E94042554
S214004AA081110FC082E00E94042581110AC084E9AA
S214004AB091E20E94DF5480E090E0892B11F00E9482
S214004AC0000008951F920F920FB60F9211240BB696
S214004AD00F92CF92DF92EF92FF922F933F934F93D6
S214004AE05F936F937F938F939F93AF93BF93CF9371
S214004AF0DF93EF93FF930E9401086B017C01809186
S214004B00142790911527A0911627B0911727A70173
S214004B109601281B390B4A0B5B0B293C31054105D6
S214004B20510508F4A8C08091860383FF53C087E927
S214004B3091E29F938F930E949D548AE090E00E949A
S214004B40ED3882E00E940425D82F81E00E940425DB
S214004B50C82F80E00E9404252D2F0D2E000C330B4D
S214004B603F93DF932C2F0C2E000C330B3F93CF93E9
S214004B70282F082E000C330B3F938F9381EA91E287
S214004B809F938F930E949D54C0921427D09215270E
S214004B90E0921627F092172785E18093860380918E
S214004BA0C8289091C9280E948A3920E030E048E45D
S214004BB055E264EF71E080E090E00E94E43B809371
S214004BC0C8289093C9284DB75EB7465F5F4F4DBF64
S214004BD05EBF51C08DEB91E29F938F930E949D54D0
S214004BE08AE090E00E94ED3882E00E940425D82FEB
S214004BF081E00E940425C82F80E00E9404252D2F06
S214004C000D2E000C330B3F93DF932C2F0C2E000C35
S214004C10330B3F93CF93282F082E000C330B3F9374
S214004C208F9381EA91E29F938F930E949D54C09246
S214004C301427D0921527E0921627F09217278DE1B9
S214004C40809386038091C8289091C9280E948A394B
S214004C5020E030E048E455E264EF71E080E090E068
S214004C600E94E43B8093C8289093C9288DB79EB7CE
S214004C700A968DBF9EBFFF91EF91DF91CF91BF91B6
S214004C80AF919F918F917F916F915F914F913F91DF
S214004C902F91FF90EF90DF90CF900F900BBE0F906C
S214004CA00FBE0F901F901895E0ECF0E080E2808336
S214004CB088B1838389B183838AB183838BB18383ED
S214004CC08CB183838DB1838380B3838382B38383E4
S214004CD083B3838384B3838385B38383A0E0B2E006
S214004CE094968C91949783839C968C919C978383BF
S214004CF0D4968C918383A0E4B2E094968C9194979A
S214004D0083839C968C91838381E080931E2D80E123
S214004D1091E092838150E9F784E88093C000109276
S214004D201F2D089590911F2D911115C0E0ECF0E015
S214004D30818180FFFDCF09C022839150E9F794E876
S214004D409093C00010921F2D08958091C20091E0AC
S214004D5090931F2D08958091C2009F5F90931F2D02
S214004D60903130F020911E2D90E1E0ECF0E0E4CFA1
S214004D700895CF930E949226C82F0E9492262C2F29
S214004D8030E0322F2227A901482BCA01CF9108957F
S214004D9010929D2410929E2410929F241092A0247C
S214004DA0E1E6F6E289EA96E2108211821282138226
S214004DB01482158216821782108611861286138632
S214004DC03C96E817F90781F71092CC281092CD2868
S214004DD01092A92608954F925F926F927F928F92BB
S214004DE09F92AF92BF92CF92DF92EF92FF920F9375
S214004DF01F93CF93DF93CDB7DEB72C97CDBFDEBF23
S214004E0069837A838B839C8329013A01C801B701A1
S214004E10EC2DF0E0EE0FFF1FEE0FFF1FE25CFF4DE4
S214004E2020813181428153810E9478466B017C014A
S214004E300E9472476D837E838F839887C701B60171
S214004E400E943D4B69877A878B879C87C301B20196
S214004E500E947247B12C9501220F331F220F331F79
S214004E60220F331F890104561D4DF8018080918062
S214004E70A280B38029813A814B815C810E94804A5E
S214004E806B017C01A50194016D817E818F819885DF
S214004E900E94774628E93CE445E050E40E94804AB8
S214004EA09B01AC01C701B6010E9478466B017C01EC
S214004EB0C301B2010E943D4BF801448055806680D4
S214004EC0778029813A814B815C810E94804A698380
S214004ED07A838B839C83A301920169857A858B856F
S214004EE09C850E94774628E93CE445E050E40E9411
S214004EF0804A9B01AC0169817A818B819C810E94EA
S214004F00784669837A838B839C83A7019601C501C3
S214004F10B4010E94804A4B015C0129813A814B8191
S214004F205C81C301B2010E94804A9B01AC01C501AD
S214004F30B4010E9478464B015C01C701B601905847
S214004F402D813E814F8158850E94804A2B013C016D
S214004F5029853A854B855C8569817A818B819C8120
S214004F600E94804A9B01AC01C301B2010E947746B1
S214004F702B013C0129813A814B815C81C701B60136
S214004F800E94DF496B017C0120E030E0A901C501E9
S214004F90B4010E94CC4918160CF049C020E030E05D
S214004FA0A901C301B2010E94CC4918160CF043C0F7
S214004FB02AE037ED43E65FE3C701B6010E94784674
S214004FC069837A838B839C83A3019201C501B40114
S214004FD00E94804A4B015C0129813A814B815C81A9
S214004FE0CA01B9010E94804A9B01AC0160E076EEDE
S214004FF08AE496E40E9477472CE53FE84EE751E4C2
S2140050000E9478469B01AC01C501B4010E94804A0B
S2140050104B015C01A7019601C701B6010E94804AB8
S2140050209B01AC01C501B4010E94774707C060E050
S21400503070E0CB0103C060E070E0CB012C96CDBFE2
S214005040DEBFDF91CF911F910F91FF90EF90DF9021
S214005050CF90BF90AF909F908F907F906F905F9013
S2140050604F9008952F923F924F925F926F927F9249
S2140050708F929F92AF92BF92CF92DF92EF92FF9263
S2140050800F931F93CF93DF93CDB7DEB7CA5AD109DC
S214005090CDBFDEBFC956DF4F688379838A839B8383
S2140050A0C759D040C556DF4F288339834A835B8370
S2140050B0CB59D040C156DF4FE882F9820A831B8362
S2140050C0CF59D0409E012F5F3F4FC955DF4F2883F1
S2140050D03983C75AD04081E696E2C755DF4F8883AA
S2140050E09983C95AD040B12C612C712C4301CD56FE
S2140050F0DF4F688279828A829B82C359D040CD5521
S214005100DF4F28833983C35AD040CB55DF4F88837F
S2140051109983C55AD040230134016DC0AD2CCB2CE9
S214005120C156DF4FE880F9800A811B81CF59D040F5
S214005130C556DF4F288139814A815B81CB59D040E3
S214005140C956DF4F688179818A819B81C759D040D3
S2140051500E94EB26F40161937193819391934F0122
S2140051609B01AC010E94804A9B01AC01CD56DF4FEB
S214005170688179818A819B81C359D0400E94784694
S214005180CD56DF4F688379838A839B83C359D0408B
S214005190F101A191B1911F019D010E945E500E94F4
S2140051A021489B01AC01C301B2010E9478462B0145
S2140051B03C01D394F6E0DF12B1CFB394CD55DF4F68
S2140051C028813981C35AD040285E3F4FCD55DF4FE6
S2140051D028833983C35AD040CB55DF4F88819981C5
S2140051E0C55AD0400C96CB55DF4F88839983C55A55
S2140051F0D040BF1671F0CB55DF4F28803980C55A96
S214005200D040CD55DF4F88809980C35AD040D12CEE
S21400521085CF4301320120E030E040E05FEBCD5621
S214005220DF4F688179818A819B81C359D0400E9473
S214005230ED4AE62E372E282EC956DF4F9883C759DB
S214005240D04020E030E040E05FEBC401B3010E94B4
S214005250ED4AC556DF4F6883CB59D040C156DF4F65
S2140052607883CF59D040CD55DF4F8883C35AD0407E
S214005270CB55DF4F9883C55AD040FE01EF56FF4FFF
S214005280CF56DF4FE883F983C159D040412C512CCB
S21400529032010E2D76C0F601619171916F01F70112
S2140052A081909190A190B1907F01072E000C880B01
S2140052B0990B0E942148C556DF4F2881CB59D04014
S2140052C0C156DF4F3881CF59D040CD55DF4F48818A
S2140052D0C35AD040CB55DF4F5881C55AD0400E94A4
S2140052E0804ACD56DF4F688379838A839B83C35970
S2140052F0D040202F332D422DC956DF4F5881C75935
S214005300D040C501B4010E94804A9B01AC01CD5635
S214005310DF4F688179818A819B81C359D0400E9482
S21400532077469B01AC015F77C301B2010E947846C5
S2140053302B013C01115009F0AECFC755DF4F288135
S2140053403981C95AD040245F3F4FC755DF4F288365
S2140053503983C95AD040C955DF4F88819981C75AC9
S214005360D0404896C955DF4F88839983C75AD040A6
S214005370CF56DF4FE881F981C159D0408E179F077D
S21400538089F0C955DF4FC880D980C75AD040C75565
S214005390DF4FE880F980C95AD04016E0C701760191
S2140053A06C0179CFC301B201C655DF4FCDBFDEBF5A
S2140053B0DF91CF911F910F91FF90EF90DF90CF90EC
S2140053C0BF90AF909F908F907F906F905F904F9020
S2140053D03F902F9008952F923F924F925F926F9238
S2140053E07F928F929F92AF92BF92CF92DF92EF9270
S2140053F0FF920F931F93CF93DF93CDB7DEB76297DD
S214005400CDBFDEBF8D879E876F87788B0F2EF1E628
S2140054108F2EF6E29F2EF02D212C412C512C32019E
S21400542049865A866B867C864D825E826F82788637
S21400543049825A826B827C820F2EF6E0AF2EB12C08
S214005440F02D73016201122D1401F1016191719129
S2140054501F01072E000C880B990B0E9421482B0178
S2140054603C01FBEA1F9F012D112406950695802F0F
S214005470880F800F880F812E881A912CC401880F00
S214005480991F880F991F880F991F9C0124563D4D20
S214005490298B3A8BF9012081318142815381C301E6
S2140054A0B2010E94804A9B01AC0169817A818B819E
S2140054B09C810E94784669837A838B839C83E989E2
S2140054C0FA892481358146815781C301B2010E9441
S2140054D0804A9B01AC016D817E818F8198850E94F8
S2140054E078466D837E838F839887C501801B9109DC
S2140054F0880D991DB5010E942050880F991F880FAE
S214005500991F880F991F9C0124593D4D4901F901A7
S2140055102081318142815381C301B2010E94804AB9
S2140055209B01AC0169857A858B859C850E947846AF
S21400553069877A878B879C87F40124813581468129
S2140055405781C301B2010E94804A9B01AC01C7018A
S214005550B6010E9478466B017C011F5F143209F089
S21400556074CF29813A814B815C816D817E818F81E8
S21400557098850E94F746ED85FE8560837183828359
S214005580938329853A854B855C85C701B6010E94C1
S214005590F746EF85F88960837183828393836296EA
S2140055A0CDBFDEBFDF91CF911F910F91FF90EF909F
S2140055B0DF90CF90BF90AF909F908F907F906F902E
S2140055C05F904F903F902F9008956F927F928F92AA
S2140055D09F92AF92BF92CF92DF92EF92FF920F937D
S2140055E01F93CF93DF9361E676E20F2EF9EAEF2E54
S2140055F0F6E2FF2EF02D0F2EFFE3BF2EF02D00E07B
S21400560010E02FC0DF014081518181E090E041151C
S214005610510511F480E090E0022E02C0880F991F19
S2140056200A94E2F78095B822C1E0D0E01416150679
S21400563014F0C0E0D0E0C49FC001C59F900DD49F79
S214005640900D11248D939C933296080F191F2F5F8F
S2140056503F4F26303105B1F6645F7F4F6E157F05EC
S21400566021F0FB0120E030E0CDCFC12CD12CE12C85
S214005670F12CE0E0CB2DD0E00F2EFFE0AF2EB12CCA
S214005680F02D88248394912C0F2EF9E86F2EF6E0E7
S2140056907F2EF02D2E2D3F2DCE010E2C02C095957F
S2140056A087950A94E2F780FF20C0C4010C2C02C044
S2140056B0880F991F0A94E2F7092E000CAA0BBB0B61
S2140056C040919D2450919E2460919F247091A02427
S2140056D0840F951FA61FB71F80939D2490939E242A
S2140056E0A0939F24B093A02421C0C5010C2C02C017
S2140056F0880F991F0A94E2F780959095092E000C62
S214005700AA0BBB0B40919D2450919E2460919F2430
S2140057107091A02484239523A623B72380939D24E9
S21400572090939E24A0939F24B093A02480919D24C0
S21400573090919E24A0919F24B091A0240C2C04C08C
S214005740B695A795979587950A94D2F78F7099275F
S214005750AA27BB270F97A105B10561F53F932F93A5
S2140057607F926F920E94B154C5010C2C02C0880F24
S214005770991F0A94E2F780959095092E000CAA0BC3
S214005780BB0B40919D2450919E2460919F24709164
S214005790A02484239523A623B72380939D24909347
S2140057A09E24A0939F24B093A0240F900F900F9058
S2140057B00F90E1E08FEFE81AF80A84E0C80ED11CDB
S2140057C086E0E816F10409F065CFE1110E94A5090C
S2140057D0C801DF91CF911F910F91FF90EF90DF905E
S2140057E0CF90BF90AF909F908F907F906F900895CE
S2140057F08F929F92AF92BF92CF92DF92EF92FF92DC
S2140058000F931F93CF93DF938091512480919A2416
S214005810C12CD12C76016894C3F80E94010800912F
S2140058202B2710912C2720912D2730912E274601CB
S2140058305701801A910AA20AB30ADC01CB01880D2F
S214005840991DAA1DBB1D4E97A105B10530F3BFB625
S214005850F8940E9401086B017C010E940108DC019B
S214005860CB018C199D09AE09BF090297A105B105A8
S214005870A0F3C1E6D6E209EA16E20E9401086B012F
S2140058807C0169E0CE010E94671E0E940108DC01CF
S214005890CB018C199D09AE09BF090897A105B10572
S2140058A0A0F388E090E00E94ED382C96C017D10750
S2140058B021F7BFBEDF91CF911F910F91FF90EF9020
S2140058C0DF90CF90BF90AF909F908F900895CF922B
